{
  "contractName": "Airline",
  "abi": [
    {
      "constant": true,
      "inputs": [
        {
          "name": "",
          "type": "uint256"
        }
      ],
      "name": "flights",
      "outputs": [
        {
          "name": "name",
          "type": "string"
        },
        {
          "name": "price",
          "type": "uint256"
        }
      ],
      "payable": false,
      "stateMutability": "view",
      "type": "function"
    },
    {
      "constant": true,
      "inputs": [
        {
          "name": "",
          "type": "address"
        }
      ],
      "name": "customers",
      "outputs": [
        {
          "name": "loyaltyPoints",
          "type": "uint256"
        },
        {
          "name": "totalFlight",
          "type": "uint256"
        }
      ],
      "payable": false,
      "stateMutability": "view",
      "type": "function"
    },
    {
      "constant": true,
      "inputs": [
        {
          "name": "",
          "type": "address"
        },
        {
          "name": "",
          "type": "uint256"
        }
      ],
      "name": "customersFlights",
      "outputs": [
        {
          "name": "name",
          "type": "string"
        },
        {
          "name": "price",
          "type": "uint256"
        }
      ],
      "payable": false,
      "stateMutability": "view",
      "type": "function"
    },
    {
      "constant": true,
      "inputs": [],
      "name": "owner",
      "outputs": [
        {
          "name": "",
          "type": "address"
        }
      ],
      "payable": false,
      "stateMutability": "view",
      "type": "function"
    },
    {
      "constant": true,
      "inputs": [
        {
          "name": "",
          "type": "address"
        }
      ],
      "name": "customersTotalFlights",
      "outputs": [
        {
          "name": "",
          "type": "uint256"
        }
      ],
      "payable": false,
      "stateMutability": "view",
      "type": "function"
    },
    {
      "inputs": [],
      "payable": false,
      "stateMutability": "nonpayable",
      "type": "constructor"
    },
    {
      "anonymous": false,
      "inputs": [
        {
          "indexed": true,
          "name": "customer",
          "type": "address"
        },
        {
          "indexed": false,
          "name": "price",
          "type": "uint256"
        },
        {
          "indexed": false,
          "name": "flight",
          "type": "string"
        }
      ],
      "name": "FlightPurchased",
      "type": "event"
    },
    {
      "constant": false,
      "inputs": [
        {
          "name": "flightIndex",
          "type": "uint256"
        }
      ],
      "name": "buyFlight",
      "outputs": [],
      "payable": true,
      "stateMutability": "payable",
      "type": "function"
    },
    {
      "constant": true,
      "inputs": [],
      "name": "totalFlights",
      "outputs": [
        {
          "name": "",
          "type": "uint256"
        }
      ],
      "payable": false,
      "stateMutability": "view",
      "type": "function"
    },
    {
      "constant": false,
      "inputs": [],
      "name": "redeemLoyaltyPoitns",
      "outputs": [],
      "payable": false,
      "stateMutability": "nonpayable",
      "type": "function"
    },
    {
      "constant": true,
      "inputs": [],
      "name": "getRefundableEther",
      "outputs": [
        {
          "name": "",
          "type": "uint256"
        }
      ],
      "payable": false,
      "stateMutability": "view",
      "type": "function"
    },
    {
      "constant": true,
      "inputs": [],
      "name": "getAirlineBalance",
      "outputs": [
        {
          "name": "",
          "type": "uint256"
        }
      ],
      "payable": false,
      "stateMutability": "view",
      "type": "function"
    }
  ],
  "bytecode": "0x608060405266038d7ea4c6800060025534801561001b57600080fd5b50336000806101000a81548173ffffffffffffffffffffffffffffffffffffffff021916908373ffffffffffffffffffffffffffffffffffffffff160217905550600160408051908101604052806040805190810160405280600581526020017f546f6b696f000000000000000000000000000000000000000000000000000000815250815260200167a688906bd8b000008152509080600181540180825580915050906001820390600052602060002090600202016000909192909190915060008201518160000190805190602001906100f792919061025a565b5060208201518160010155505050600160408051908101604052806040805190810160405280600781526020017f4765726d616e79000000000000000000000000000000000000000000000000008152508152602001662386f26fc1000081525090806001815401808255809150509060018203906000526020600020906002020160009091929091909150600082015181600001908051906020019061019f92919061025a565b5060208201518160010155505050600160408051908101604052806040805190810160405280600981526020017f416d7374657264616d00000000000000000000000000000000000000000000008152508152602001666a94d74f43000081525090806001815401808255809150509060018203906000526020600020906002020160009091929091909150600082015181600001908051906020019061024792919061025a565b50602082015181600101555050506102ff565b828054600181600116156101000203166002900490600052602060002090601f016020900481019282601f1061029b57805160ff19168380011785556102c9565b828001600101855582156102c9579182015b828111156102c85782518255916020019190600101906102ad565b5b5090506102d691906102da565b5090565b6102fc91905b808211156102f85760008160009055506001016102e0565b5090565b90565b610aaf8061030e6000396000f3006080604052600436106100a4576000357c0100000000000000000000000000000000000000000000000000000000900463ffffffff1680630ca97e48146100a957806315ccf70f146100c95780632411ff731461017657806329cd30b4146101a1578063336989ae146101cc5780633a34becd1461022a5780634bf02e7a146102f75780638c62121e146103225780638da5cb5b14610339578063d0d609d614610390575b600080fd5b6100c7600480360381019080803590602001909291905050506103e7565b005b3480156100d557600080fd5b506100f460048036038101908080359060200190929190505050610655565b6040518080602001838152602001828103825284818151815260200191508051906020019080838360005b8381101561013a57808201518184015260208101905061011f565b50505050905090810190601f1680156101675780820380516001836020036101000a031916815260200191505b50935050505060405180910390f35b34801561018257600080fd5b5061018b610720565b6040518082815260200191505060405180910390f35b3480156101ad57600080fd5b506101b661076e565b6040518082815260200191505060405180910390f35b3480156101d857600080fd5b5061020d600480360381019080803573ffffffffffffffffffffffffffffffffffffffff1690602001909291905050506107ed565b604051808381526020018281526020019250505060405180910390f35b34801561023657600080fd5b50610275600480360381019080803573ffffffffffffffffffffffffffffffffffffffff16906020019092919080359060200190929190505050610811565b6040518080602001838152602001828103825284818151815260200191508051906020019080838360005b838110156102bb5780820151818401526020810190506102a0565b50505050905090810190601f1680156102e85780820380516001836020036101000a031916815260200191505b50935050505060405180910390f35b34801561030357600080fd5b5061030c6108e9565b6040518082815260200191505060405180910390f35b34801561032e57600080fd5b506103376108f6565b005b34801561034557600080fd5b5061034e61099a565b604051808273ffffffffffffffffffffffffffffffffffffffff1673ffffffffffffffffffffffffffffffffffffffff16815260200191505060405180910390f35b34801561039c57600080fd5b506103d1600480360381019080803573ffffffffffffffffffffffffffffffffffffffff1690602001909291905050506109bf565b6040518082815260200191505060405180910390f35b6000806001838154811015156103f957fe5b9060005260206000209060020201915081600101543414151561041b57600080fd5b600360003373ffffffffffffffffffffffffffffffffffffffff1673ffffffffffffffffffffffffffffffffffffffff16815260200190815260200160002090506005816000016000828254019250508190555060018160010160008282540192505081905550600460003373ffffffffffffffffffffffffffffffffffffffff1673ffffffffffffffffffffffffffffffffffffffff1681526020019081526020016000208290806001815401808255809150509060018203906000526020600020906002020160009091929091909150600082018160000190805460018160011615610100020316600290046105149291906109d7565b5060018201548160010155505050600560003373ffffffffffffffffffffffffffffffffffffffff1673ffffffffffffffffffffffffffffffffffffffff168152602001908152602001600020600081548092919060010191905055503373ffffffffffffffffffffffffffffffffffffffff167f1a02c9b180301ecb4108648e8e1cd231f2857cc169519367000f7380f57566c483600101548460000160405180838152602001806020018281038252838181546001816001161561010002031660029004815260200191508054600181600116156101000203166002900480156106415780601f1061061657610100808354040283529160200191610641565b820191906000526020600020905b81548152906001019060200180831161062457829003601f168201915b5050935050505060405180910390a2505050565b60018181548110151561066457fe5b9060005260206000209060020201600091509050806000018054600181600116156101000203166002900480601f0160208091040260200160405190810160405280929190818152602001828054600181600116156101000203166002900480156107105780601f106106e557610100808354040283529160200191610710565b820191906000526020600020905b8154815290600101906020018083116106f357829003601f168201915b5050505050908060010154905082565b6000600360003373ffffffffffffffffffffffffffffffffffffffff1673ffffffffffffffffffffffffffffffffffffffff1681526020019081526020016000206000015460025402905090565b6000806000809054906101000a900473ffffffffffffffffffffffffffffffffffffffff1673ffffffffffffffffffffffffffffffffffffffff163373ffffffffffffffffffffffffffffffffffffffff161415156107cc57600080fd5b3090508073ffffffffffffffffffffffffffffffffffffffff163191505090565b60036020528060005260406000206000915090508060000154908060010154905082565b60046020528160005260406000208181548110151561082c57fe5b906000526020600020906002020160009150915050806000018054600181600116156101000203166002900480601f0160208091040260200160405190810160405280929190818152602001828054600181600116156101000203166002900480156108d95780601f106108ae576101008083540402835291602001916108d9565b820191906000526020600020905b8154815290600101906020018083116108bc57829003601f168201915b5050505050908060010154905082565b6000600180549050905090565b600080600360003373ffffffffffffffffffffffffffffffffffffffff1673ffffffffffffffffffffffffffffffffffffffff168152602001908152602001600020915081600001546002540290503373ffffffffffffffffffffffffffffffffffffffff166108fc829081150290604051600060405180830381858888f1935050505015801561098b573d6000803e3d6000fd5b50600082600001819055505050565b6000809054906101000a900473ffffffffffffffffffffffffffffffffffffffff1681565b60056020528060005260406000206000915090505481565b828054600181600116156101000203166002900490600052602060002090601f016020900481019282601f10610a105780548555610a4d565b82800160010185558215610a4d57600052602060002091601f016020900482015b82811115610a4c578254825591600101919060010190610a31565b5b509050610a5a9190610a5e565b5090565b610a8091905b80821115610a7c576000816000905550600101610a64565b5090565b905600a165627a7a72305820596cd537b47f90d6cf06eb584413eabde800248d6487de378bda0c4b76a8603b0029",
  "source": "pragma solidity ^0.4.24;\n\ncontract Airline {\n    address public owner;\n\n    struct Customer {\n        uint256 loyaltyPoints;\n        uint256 totalFlight;\n    }\n\n    struct Flight {\n        string name;\n        uint256 price; /// uint === uint256\n    }\n\n    Flight[] public flights;\n\n    uint256 etherPerPoint = 0.001 ether;\n\n    mapping(address => Customer) public customers;\n    mapping(address => Flight[]) public customersFlights;\n    mapping(address => uint256) public customersTotalFlights;\n\n    event FlightPurchased(\n        address indexed customer,\n        uint256 price,\n        string flight\n    );\n\n    constructor() {\n        owner = msg.sender;\n        flights.push(Flight(\"Tokio\", 12 ether));\n        flights.push(Flight(\"Germany\", 0.01 ether));\n        flights.push(Flight(\"Amsterdam\", 0.03 ether));\n    }\n\n    function buyFlight(uint256 flightIndex) public payable {\n        Flight storage flightToBuy = flights[flightIndex];\n        require(msg.value == flightToBuy.price);\n\n        Customer storage customer = customers[msg.sender];\n        customer.loyaltyPoints += 5;\n        customer.totalFlight += 1;\n        customersFlights[msg.sender].push(flightToBuy);\n        customersTotalFlights[msg.sender]++;\n\n        emit FlightPurchased(msg.sender, flightToBuy.price, flightToBuy.name);\n    }\n\n    function totalFlights() public view returns (uint256) {\n        return flights.length;\n    }\n\n    function redeemLoyaltyPoitns() public {\n        Customer storage customer = customers[msg.sender];\n        uint256 etherToRefund = etherPerPoint * customer.loyaltyPoints;\n        msg.sender.transfer(etherToRefund);\n        customer.loyaltyPoints = 0;\n    }\n\n    function getRefundableEther() public view returns (uint256) {\n        return etherPerPoint * customers[msg.sender].loyaltyPoints;\n    }\n\n    function getAirlineBalance() public view isOwner returns (uint256) {\n        address airlinesAddress = this;\n        return airlinesAddress.balance;\n    }\n\n    modifier isOwner() {\n        require(msg.sender == owner);\n        _;\n    }\n}\n",
  "sourcePath": "/home/david/Documents/Learn/Solidity/udemy-ethereum-the-airline/contracts/Airline.sol",
  "compiler": {
    "name": "solc",
    "version": "0.4.25+commit.59dbf8f1.Emscripten.clang"
  },
  "schemaVersion": "2.0.2",
  "updatedAt": "2022-04-06T11:57:26.974Z"
}